:020000040800F2
:1060000000120020AD670008E5DA0008E9DA0008B0
:10601000691B0408EDDA0008F5DA0008FBF803084C
:10602000FBF80308FBF80308FBF80308FBF8030878
:10603000F9DA000888C70508FBF80308FBF803082D
:10604000BD6C0008FBF80308FBF80308FBF8030825
:10605000FBF80308FBF80308FBF80308FBF8030848
:10606000FBF80308FBF80308FBF80308FBF8030838
:10607000FBF80308FBF80308FBF80308FBF8030828
:10608000FBF80308FBF80308FBF80308FBF8030818
:10609000FBF8030865720008FBF80308FBF8030827
:1060A000FBF803088973000865730008FBF8030810
:1060B000FBF8030811DA03089DE403086FBE050826
:1060C0006BBE050845DC03087BBE050873BE0508EA
:1060D00075E4030877BE0508DDE4030849E5030815
:1060E000FBF80308FBF80308FBF80308FBF80308B8
:1060F000FBF80308FBF80308FBF80308FBF80308A8
:10610000FBF80308FBF80308FBF80308FBF8030897
:10611000FBF80308FBF80308FBF80308FBF8030887
:10612000FBF80308FBF80308FBF80308FBF8030877
:10613000FBF80308FBF80308FBF80308FBF8030867
:10614000FBF80308FBF80308FBF80308F51B040839
:1061500081C40308FBF80308A1BB0508A7BB050819
:10616000FBF80308FBF80308FBF80308FBF8030837
:10617000013800D0FCE770472DE9F3411E461C4B67
:10618000044683424FF000038B4115460AD216A302
:10619000D3E9002338F0DAFA1649144602462846B5
:1061A00044F020FE144B4EF66021B4FBF3F203FBE7
:1061B0001244B4FBF1F34FF47A7801FB1344B4FBBF
:1061C000F8F728460D49009744F00CFE46B12846E2
:1061D00008FB17420A4902B0BDE8F04144F002BE94
:1061E00002B0BDE8F08100BF005C260500000000A1
:1061F000FF5B2605C005060880EE3600C6050608CA
:10620000D505060800000000F7B501202FF0C4FFF7
:106210000446002840F0A480554E564B564DC6E922
:10622000003041F60B231022B06028607F215348D4
:10623000AB8055F073FF7F22514B1A70514B1B6A94
:10624000DB0700D4FEE72146304631F0A9FA0446C8
:1062500000B9FEE74C4931F035FE00B1FEE70221FE
:10626000204655F01DF900B1FEE72046474932F0BF
:106270003FF800B1FEE70121204655F0AFFA00B12A
:10628000FEE70121204655F0B7FA074600B1FEE7C8
:1062900001463C223E4855F041FF80233A462046C5
:1062A00006F1100155F0B1F9802800D0FEE7394E13
:1062B000012031F0C9FA2CA3D3E900233460204631
:1062C000CDE900234FF0FF324FF0FF3355F023F9B3
:1062D00000B1FEE7002128482FF0BAFF012108464F
:1062E0002FF088FF0121306855F07CF8044600B19A
:1062F000FEE701464FF40C62274855F00FFF274B8D
:10630000274A9C801C60274B6FF063001A609C80BA
:10631000254A264B1A60264A9C805A6131F05EF964
:106320002B790B2B00D9FEE76B790A2BFBD9214B7C
:106330001D6003F09BFA20462FF0DAFF0822306838
:10634000114655F0EAF8044600B1FEE730F0A2FF2E
:10635000194B1A481C7003B0BDE8F04043F0D9BA9D
:1063600003B0F0BDAFF300800BE020FF220200007D
:10637000207700207564030818770020A78E00207E
:10638000A68E00200080E00F07001100A40A060876
:10639000D076002010770020B4770020F864002029
:1063A000408F0020D0640020C18E0020A86400200F
:1063B0009864002014770020C28F0020950A0608F8
:1063C0000348044B834202D0034B03B11847704784
:1063D000A4160020A416002000000000064B074968
:1063E000C91A891048BF0131491003D0044B0BB1C1
:1063F00001481847704700BFA4160020A4160020CB
:106400000000000010B5064C237843B9FFF7D8FF11
:10641000044B13B10448AFF300800123237010BD77
:106420008086002000000000004E060808B5054BDD
:106430001BB105490548AFF30080BDE80840FFF7F0
:10644000CDBF00BF0000000050670020004E0608CE
:10645000A3F5803A704700BF174B002B08BF134BC2
:106460009D46FFF7F5FF00218B460F461348144A5F
:10647000121A55F053FE0E4B002B00D098470D4BCF
:10648000002B00D098470020002104000D000D488B
:10649000002802D00C48AFF3008038F033FD200014
:1064A000290039F070F938F007FB00BF0000080040
:1064B000000000000000000000120020A4160020D0
:1064C000F08F0020000000000000000008B543F03D
:1064D000A9F8054B186028B97F21044B044A0548E8
:1064E00038F0C4FA08BD00BF6867002040C705083F
:1064F00053C705084AC70508014B186814F03CBC8F
:106500006867002010B5044C206843F082FB2068C7
:10651000BDE8104030F0CCBF6867002010B5274CB4
:1065200002F09EF902F02CFB236F23F0070343F0E7
:106530000303236739F0C4FB214B00209B6ADB0176
:106540005EBF4FF480321F4B9A62D4F8203123F0A3
:10655000070343F00203C4F82031D4F8283123F0B4
:10656000070343F00203C4F82831D4F8403123F084
:10657000030343F00203C4F84031D4F8603123F040
:10658000030343F00203C4F86031D4F8403223F02F
:10659000030343F00203C4F84032D4F8003223F07E
:1065A000070343F00203C4F80032D4F8083223F0A2
:1065B000070343F00203C4F8083210BD0080005006
:1065C0000040005A0060005A18B1034B18600020C8
:1065D00070472520704700BF6C67002010B5054C40
:1065E0000549206801F0B4FA2068BDE81040FFF7C3
:1065F000EBBF00BFC01300209C120020014B1868A5
:10660000704700BF6C67002013B5082039F0E8F927
:10661000FFF7F4FF0123124C8DF8003090F836306C
:106620002060DBB9006839F02CFC236820F07F4043
:1066300093F8353040EA83700190684639F021F9CB
:1066400002238DF80030074B6846019339F019F9A1
:10665000082002B0BDE8104039F0CDB90020E4E7D1
:10666000D0670020006A18102DE9F043434D89B02F
:1066700001AC0FCD0FC495E80700012584E80700A1
:1066800001213A2001F0AAFE3D4F0121292001F00D
:10669000A5FE3C4B384601A903938DF8125002F039
:1066A00007FF2B4629460422022002F083FC022128
:1066B0002A460846002302F07DFC2B4604220321D3
:1066C000022002F077FC04222B461146022002F041
:1066D00071FC2D4C2D4B1026C4F834374FF00213AB
:1066E000C4F83037A3F58033C4F838371C2304F5D9
:1066F0000059C4F820374FF4487007F0F9FD04F54D
:1067000080581420C9F8A06007F0F2FD2320C8F8D3
:10671000A06007F0EDFDB9213846C9F8A06039F056
:10672000E0FB002329461A460220C8F8A06002F0C8
:1067300041FC002302211A46084602F03BFC2B468E
:1067400000220321022002F035FC2B460022042106
:10675000022002F02FFC384602F028FE00212920FA
:10676000C4F83417C4F83017C4F83817C4F8201721
:1067700001F034FE09B0BDE8F08300BF6CC7050826
:1067800000C0055000127A0000C003500200030050
:106790000348044A0449121A921039F0AFB800BFF6
:1067A0001C5206081C520608F08F002008B500F0A5
:1067B0002FF8FFF7EDFF124B12498B4212D3002046
:1067C000114B12498B4218D3FFF746FE186850F858
:1067D0002240586840F82240013298688242F5D33E
:1067E0000C33EAE70022F8E71C6844F82200013283
:1067F0005C68A242F8D30833E4E70022F8E700BF60
:10680000084E0608144E0608144E0608144E0608D4
:106810004FF480414FF0FF30114B124A10B59A608F
:10682000D3F8882042F47002C3F888200E4A91669B
:106830000E4901F5005210660D4850660220C3F85B
:10684000D000BFF34F8FBFF36F8F01244FF440335D
:106850000848C0F88041D36004600B6110BD00BFE0
:1068600000ED00E00060000800900050008000444F
:10687000F7FF370000E100E0014B1868704700BFE8
:10688000C8130020084B1B6F03F00703022B04D032
:10689000032B05D0012B05D0FEE7044B1868704789
:1068A000034BFBE70348704700800050C8130020EB
:1068B000D0130020002D310108B5FFF7E3FF054B91
:1068C0001B6FC3F303330133B0FBF3F0024B1860CB
:1068D00008BD00BF00800050C4130020004870476E
:1068E00000B4C404014B1868704700BFD0130020E7
:1068F000054B1860054B1B6F03F00703032B01D1F9
:10690000FFF7DABF704700BFD013002000800050AF
:1069100000487047002D31014FF0B4439868C0F330
:1069200004400C280AD8DFE800F00B09090909091E
:10693000072119091B1D1F000F48704700207047D1
:106940009B6803F04073B3F1807F11D0B3F1007FF7
:1069500010D00A4A002B08BF1046704708487047FD
:10696000084870470848704708487047084870470B
:106970000848704708487047405DC60000093D0060
:10698000C0EA210180BA8C010048E801005A620285
:106990000024F40080841E0040420F00014B186860
:1069A000704700BFCC130020BFF34F8F0549064B43
:1069B000CA6802F4E0621343CB60BFF34F8F00BF9D
:1069C000FDE700BF00ED00E00400FA054FF00063B2
:1069D0009B6A03F17842B2F5C04F03D21968064AA8
:1069E000914203D00023037083607047012202703C
:1069F0009A689B694260F7E707B0CD5E08B54FF033
:106A00000053024A1A60FFF7CFFF00BF02020FF0E7
:106A100073B54F4B04461A781AB102221A7002B0AD
:106A200070BDCDE900220028F9D001261E7039F092
:106A300067F9484D484B186034F0F8FB2B785BB988
:106A400000F0B4FC40B945480823454A4549006870
:106A50001AF0BCFA00B92E70434B5A6E62619B6EFD
:106A6000424AA3614FF480439366414B5968E16108
:106A700040499960196E2160596E6160D3F87011B8
:106A8000A160196CE160596C21613B49086C186484
:106A9000496C5964012151661B6E9C0441D5374AEB
:106AA000D368D807FCD4364B1A68531C3ED04FF439
:106AB00080139340334A13664FF400730426314C1D
:106AC0002666236638F049FF01300DD038F045FFC7
:106AD00040F20113984207D04FF4005323664FF45D
:106AE00080432366C4F870610823264C68462366F9
:106AF0004FF4805323664FF0006323664FF4002366
:106B000001A9636638F00DFF009B2366019B636655
:106B10002B78002B83D0124B1A6822665B68636661
:106B20007DE7194AD368D907FCD4BCE7174B1B781B
:106B3000002BC1D14FF400720C4B5A6603F5A6230B
:106B40005B68002BB8D14FF480120E4B1A66B3E786
:106B50008286002083860020F4670020FC1300203A
:106B6000F86700200071080000800050009000507D
:106B70000080004455CEAC0000C00054000004402A
:106B8000D4130020009000440000045081860020AF
:106B900070B5224D04462E78012E02D001232B70B1
:106BA00070BD0028FCD038F0D8FE01300BD038F092
:106BB000D4FE40F20113984205D0194B194A5E6683
:106BC000D368DE07FCD42268174B1A6662685A66DF
:106BD000A268C3F87021E2681A6422695A64E26903
:106BE000D00744BF00229A60104B1A68013207D1C7
:106BF0000F4A127822B90F494968C90748BF1A607D
:106C000062690D4B5A66A2699A6634F017FB0B4B0A
:106C1000186839F07BF80023C1E700BF82860020A6
:106C2000009000400000044000800044D413002085
:106C30008186002000C0055000800050F4670020CD
:106C400070B54FF00064A36A03F17842B2F5C04F0B
:106C500024D21A68134B9A4220D1134E337813F082
:106C6000FD0F02D00024204670BD1048FFF7D0FE73
:106C700001254FF480330E4A0E49C2F88051CB6093
:106C800015600D4A1361A36ADB69984704460748FB
:106C9000FFF77EFF002CE6D13570E3E74FF48174F7
:106CA000E1E700BF07B0CD5E81860020D4670020F9
:106CB00000E100E000A000440090004413B5204B28
:106CC0001B7803B9FEE700231E4CCDE900336A466A
:106CD00008231D4920681AF079F9F0B91B4AD2F847
:106CE0004031D2F840211F2B4FF0010310D9203A38
:106CF0009340019A1A43019208236A461249206878
:106D00001AF01AF94FF00053114A1A60FFF74CFEBF
:106D10009340009A1A430092EEE70E4B9842F1D14D
:106D20000A4AD2F84031D2F840211F2B4FF001031C
:106D300085BF203A93409340019398BF0093DBE7CF
:106D400082860020FC1300200071080000800044AF
:106D50000B020FF00BE000F00346054A05491068EE
:106D600003448B428CBF4FF0FF301360704700BF6D
:106D7000D81300200000042008B501213A2001F0BA
:106D80002DFB012304220321002002F013F900202F
:106D900039F014F80122354B3549C3F844244FF437
:106DA0000022A3F550335A66324BD3F8FC20D201AF
:106DB00046D4D1F8803023F0030343F00203C1F836
:106DC00080304FF4607001F023FB2A4B00F5D52092
:106DD000D3F8F02000F2FC4042F00102C3F8F020AA
:106DE000D3F8FC2042F08072C3F8FC20224AA3F5BD
:106DF0005D431A60214B0222B0FBF3F0204B0138B7
:106E00001861C3F8F0204FF48072C3F804234FF0E8
:106E100060431C4A0020C3F8B02F1B4AC3F8802EE1
:106E2000D3F8002E42F48072C3F8002EFF2283F8BC
:106E30002020D3F8002E22F48072C3F8002E08BD63
:106E4000D3F8FC2022F08072C3F8FC20D1F8802017
:106E500022F0030242F00202C1F88020D3F8FC20A5
:106E600042F08072C3F8FC20ABE700BF00D00350B3
:106E70000080005000ED00E0FF030040F8590D00D5
:106E8000000004E055CEACC5090001004FF060439E
:106E9000D3F8802E30B5D20715D501240B4D844090
:106EA000D5F8FC2042F08072C5F8FC20D3F8002E03
:106EB0002243C3F8002E53F82020002AF0D003F814
:106EC0002010002030BD1120FCE700BF00ED00E0E5
:106ED0002DE9F04F9A46564B85B01B7806460F4673
:106EE0001546DDF83C909DF844B0DDF85080002B4D
:106EF00000F09780072A00F296800E9B002B00F08E
:106F00009280B9F1000F00F08E80129BB3F5006FF4
:106F100000F38980012803D1109B002B00F08380AF
:106F2000444B03EB05131B7B002B7ED0424C1022FD
:106F30000021684655F0F2F804EB45141022A7BB77
:106F40003946204655F0EAF843F210036380BBF15E
:106F5000000F03D1E37843F00303E370364A0E9B3E
:106F600002EB451CCCE90193129B6901581E9DF868
:106F70004C30C0F30A0003F003039B0643EA001EF3
:106F800053582E48012E00EA03004EEA0003CDF8C4
:106F900000A0535017D0B8F1000F2ED19CF802304A
:106FA00068F304138CF8023027E00021204655F0E6
:106FB000B5F84FF444736380BBF1000FCED1E37892
:106FC00043F03003C9E713230CF1100ECCF80C305A
:106FD0009CE80F008EE80F006FF00301DCF81C2026
:106FE000109B61F39F02012FCCF81C20CCF81430C9
:106FF00003D1CCF81890CCF8043000270D4A2901B1
:1070000002EB051342F80180159A28465A6069463A
:1070100022469F605E7302F04DF8384605B0BDE829
:10702000F08F0748FAE70748F8E70748F6E700BF98
:107030008486002000690020006800200F80FFF394
:10704000028000F0018000F0078000F038B5124B9C
:1070500005461B78DBB1E0B138F052FE0F4A002341
:107060001146147B54B92B6001251A0101EB03135F
:107070001D738C5038F04AFE204638BD0133082B72
:1070800002F11002EDD138F041FE0548F5E7054860
:10709000F3E70548F1E700BF84860020006900207F
:1070A000048000F0028000F0018000F0154B13B561
:1070B0001868002301908DF8043038F021FE124B3F
:1070C0001C7824B138F022FE104802B010BD012215
:1070D0001A7038F01BFE0E4B01A81C731C7783F846
:1070E0002C4083F83C4083F84C4083F85C4083F8A4
:1070F0006C4083F87C4008238DF8073001F0A8FF2E
:107100002046E2E7D8C7050884860020038000F007
:10711000006900200A4A08B512785AB107280BD82E
:10712000084A02EB00131B7B43B1002101F082FFF0
:10713000002008BD0448FCE70448FAE70448F8E7E3
:107140008486002000690020028000F0018000F0A9
:10715000078000F00A4A08B512785AB107280BD800
:10716000084A02EB00131B7B43B1012101F062FFCF
:10717000002008BD0448FCE70448FAE70448F8E7A3
:107180008486002000690020028000F0018000F069
:10719000078000F00A4A08B5127852B107280AD8C9
:1071A000084A02EB00131B7B3BB101F0CFFF00202C
:1071B00008BD0548FCE70548FAE70548F8E700BFC1
:1071C0008486002000690020028000F0018000F029
:1071D000078000F00C4B1B787BB107280FD871B1EA
:1071E0000A4B03EB00131B7B5BB1094BDB6AC3400B
:1071F00003F0010300200B707047064870470648F3
:1072000070470648704700BF848600200069002050
:1072100000000450028000F0018000F0078000F0C0
:107220000B4A10B512780C4662B107280CD859B138
:10723000084A02EB00131B7B43B101F099FF206069
:10724000002010BD0448FCE70448FAE70448F8E7CA
:107250008486002000690020028000F0018000F098
:10726000078000F0184B2DE9F0411F6D5B6D1F404A
:1072700000D5FEE701260025144CDFF85880374280
:1072800018D02368C8F85060A3B1A168284601311E
:107290006268A1609847637B012B0BD150B90C4BFE
:1072A00003EB45131A7B60F341021A731A7F60F3F4
:1072B00041021A770135082D4FEA460604F1100401
:1072C000DDD1BDE8F08100BF00000450006900205E
:1072D000006800200020045070B5044601250B4EC4
:1072E00004B970BD94FAA4F0B0FA80F005FA00F386
:1072F00006EB001224EA03045368002BF0D0117B44
:1073000011B191689847EBE79847E9E78069002059
:1073100008B5192001F068FC28B14FF00072074B46
:10732000C3F880211A601A2001F05EFC28B14FF0EA
:107330008062024BC3F880211A6008BD00E100E0C2
:1073400038B505460C4638F0DBFC0022044B03EB55
:1073500005135C601A73BDE8384038F0D7BC00BF35
:1073600080690020074BD3F82404D3F8202403F5C8
:107370000053104000F0553020F05020C3F8200496
:10738000FFF7AABF00C00350074BD3F82404D3F87B
:10739000202403F50053104000F0AA3020F0A02074
:1073A000C3F82004FFF798BF00C00350024B1968D0
:1073B000024B186819F0E6BCDC130020FC13002017
:1073C00070B59400224605460E4655F099F9431CC7
:1073D0000AD058B922463146284654F075FE002896
:1073E000034808BF002070BD0248FCE70248FAE7E6
:1073F00010E000F021E000F024E000F010B50446B9
:1074000055F07AF9431C10D088B901F067FF234684
:1074100020F003002044984201D1002010BD53F811
:10742000042B0132F7D00348F8E70348F6E7034896
:10743000F4E700BF0EE000F021E000F024E000F0EF
:1074400008B538F052FC014B186008BD707200207E
:10745000014B186838F04DBC7072002038B141B152
:10746000013AB2F5006F044838BF00207047034866
:1074700070470148704700BF037000F0027000F0D1
:10748000104930B50A78104B2AB9C3E90022C3E984
:10749000022201220A700C4900220C4654F8045BB7
:1074A000854208D00132042AF8D1002251F8044B59
:1074B0001CB943F82200002030BD0132042AF5D166
:1074C0000248F9E78586002074720020027000F0FF
:1074D00038B504460D4638F013FCA3889BB223B997
:1074E0002B6038F013FC064838BD142263889BB229
:1074F00002FB034408342C6038F008FC0020F3E75A
:107500000B7000F010B50446FFF7D0FD002104F128
:107510000800FFF79BFD014608B1044810BD04F1C7
:107520000C00FFF793FD0028F8D0F6E70E7000F08E
:10753000F8B5044616460F4638F0E2FBA388E28809
:107540009BB29A42054605D80023336038F0DEFB33
:107550001748F8BD1422238807F1100C9BB202FBD8
:1075600003433A460833174603CF6745186059600E
:107570003A4603F10803F6D11422386818602388CC
:1075800028469BB202FB0343083333602388E2881A
:107590009BB20133B3FBF2F102FB11339BB22380A8
:1075A000A38801339BB2A38038F0B0FB0020D0E762
:1075B0000A7000F07FB5012380F8303090F8363043
:1075C0009BB903682433826B013282630C4A0490B6
:1075D0000392002202924A680192012200920A68F4
:1075E0004169C06838F02DFA07E0022B02D1036828
:1075F0003C33E8E7002380F8303007B05DF804FB47
:10760000817D00087FB5012380F8313090F8363055
:107610009BB902683C32836B013383630C4B04904B
:107620000393002302934B680193012300930B689B
:107630000169806838F0EBF907E0022B02D102689B
:107640004432E8E7002380F8313007B05DF804FBEE
:10765000C577000890F83530022B0DD11422302365
:10766000417F13FB0123054A9B5890F8212023FA00
:1076700002F000F0010070470020704730C0035056
:10768000002313B51D4A52F8044B94F8211081428F
:107690000ED00133042BF6D102B010BD0028FBD16F
:1076A0009DF80730002BF7D0A068FFF733FDF3E714
:1076B00094F83530022BEFD12046FFF7CBFF637EE5
:1076C0002076022BE8D194F8323003F0FF02002B31
:1076D000E2D1A0680DF107018DF80720FFF77AFDD0
:1076E000237E1BB194F83330002BD7D00023A06841
:1076F00084F83330FFF72EFDCEE700BF7472002010
:1077000090F8363053B9042103790A4A03F2391349
:107710005B01D150022203685A617047022B07D1E6
:107720000068816C11F0020118BF062138F02DBBF2
:10773000704700BF00C0035090F8363063B9012293
:1077400003685A619A69D207FCD504210379084A73
:10775000B9335B01D1507047022B07D10068836CAD
:107760009B074CBF0521092138F00FBB704700BFB4
:1077700000C0035010B590F83630044663B90422B7
:1077800003685A619A699207FCD523790C4AB93388
:107790005B011021995010BD022BFCD10068836C55
:1077A000DB074CBF0521062138F0EFFA237941F2BF
:1077B00094425B0103F1A04303F57033E9E700BF96
:1077C00000C003502DE9F3411446D06A01A9FFF728
:1077D0007FFEA36BA36B013BA363164B984222D0A1
:1077E0000027019D2F61AF6038F08AFAD5F80C8030
:1077F0000646B8F1000F04D0D5E9002339462046EB
:10780000C047E06A01A938F0DAF9E06A83889BB2E0
:107810006BB101A9FFF75CFE20460199FFF7F2FE6C
:10782000304638F073FA012002B0BDE8F08184F8E8
:107830003130F5E70B7000F0F7B50D46044600282F
:1078400000F0888038F05CFA012D064609D1E36A21
:107850009B889BB2002B35D138F058FA3E4803B0D4
:10786000F0BD022D26D1A36A9B889BB2002BF3D0DA
:10787000E068FFF78FFC0023A06A84F8303083882B
:107880009BB27BB16946FFF723FE009DE06805F1DE
:107890000801FFF7C5FC314B2B61A06A83889BB2BE
:1078A000002B4AD194F83530032B2CD02046FFF71B
:1078B00027FF28E0032D26D1E36A9B889BB20BB9F2
:1078C000A36AC5E7A068FFF765FC0023E06A84F8B7
:1078D000313083889BB273B101A9FFF7F9FD019F95
:1078E000A06807F10801FFF79BFC1C4B3B61E06AB5
:1078F00083889BB2A3B9204638F084F98304FAD573
:10790000023D012DB4D9A36B3046002BC1BFA36B40
:10791000A36B03F1FF33A36338F0F8F900209EE76F
:1079200001A938F04CF9019BDF68002FDFD000225D
:1079300020469B680949B847D9E7694638F03FF9BE
:10794000009BDD68002DA8D0002220469B680349DB
:10795000A847A2E7024882E7087000F0097000F02B
:10796000027000F02DE9F04104461746FFF776FD5E
:1079700088460646E8B9152001F044F90546E26A52
:1079800093889BB213B194F83230ABB194F836308F
:10799000BBB923689D6915F0020527D0012384F83F
:1079A00034304744B845206844D183699B06FCD5F0
:1079B00045B33046BDE8F081002DE1D0FFF752FC21
:1079C000DDE7022B12D123689D6C15F002050DD066
:1079D000012384F8343047444745206831D142F2CE
:1079E0002002836C32EA0303FBD1E1E72046FFF774
:1079F000C1FE012394F8365084F83430002DD0D0E5
:107A0000022D1CD094F8363003B3022BD1D120685C
:107A1000816C11F0010118BF092138F0B6F942F26A
:107A20009442102123795B0103F1A04303F57033E5
:107A30009950BEE718F8011B38F05DFAB2E700254F
:107A4000C9E718F8011B38F0A5F9C5E7102123791B
:107A5000044A03F239135B01D150082223685A61AA
:107A6000A7E700BF00C0035010B5044680B190F8EE
:107A700032302BB9FFF7EEFD10B9A068FFF74AFBD3
:107A8000002094F832300133DBB284F8323010BD7C
:107A90000048FCE7027000F010B50446A0B190F871
:107AA00032309BB190F83230012B05D1FFF7D2FD77
:107AB00010B9A068FFF74EFB002094F83230013B6C
:107AC000DBB284F8323010BD0148FCE70148FAE728
:107AD000027000F0057000F037B590F8355004469C
:107AE000022D1DD1012290F82230457E817F9A40DF
:107AF0003020164B3DB900FB013303F501531A60EA
:107B0000002003B030BD012D04D100FB013303F58B
:107B10008253F4E7247E00FB0133002CF7D1ECE71D
:107B2000012DEDD1037E73B911238DF80730FFF7D6
:107B30009BFF2A4620460DF10701FFF713FF204661
:107B4000FFF7AAFFDCE71323EFE700BF00C00350F5
:107B50002DE9F04305466D4F89B001AE0C460FCFBD
:107B60000FC697E8070086E80700002D00F0CB80DD
:107B700024B9674E304609B0BDE8F0836022002189
:107B8000284654F0CBFA2846FFF77AFC0646002830
:107B9000F0D1237D85F83530236885F836002B60D9
:107BA000227B2A715B4A9342E3D129236B624FF413
:107BB000802359498046C5E90413D4E90723AA6202
:107BC00010805080908085F83000EB6218805880DB
:107BD0009880636885F831000393E38985F8330062
:107BE000ADF81430238A0121ADF81230A37C3A207D
:107BF0008DF81030E37C494F8DF8163005238DF851
:107C0000113000F0EBFB0121686A00F0E7FB20680F
:107C100001A98DF8046001F0EBFB1421237B03F133
:107C200039025201B950267AA07A07EB431346EA8B
:107C30000042C3F83827617AE27A41EA024CC3F87D
:107C400030C7EE76E877297785F82020637D01211B
:107C50006B77A37D284685F82130E37DAB77237EC3
:107C600085F8223037F03CFF0646002882D138F0F4
:107C700047F8237D8146032B33D10221227B02F179
:107C8000B9035B01F950042107EB421741F22C7252
:107C9000236803F58053D965217EE37D43EA0143E0
:107CA000BB50A27D637D43EA024341F22872BB5080
:107CB0004FF0FF32206800F500539A64237D032BB8
:107CC0000CBF0521042138F0FDF84FF44062236811
:107CD00028465A61FFF716FC0646484638F016F863
:107CE00048E7022BE4D195F821000D49FFF728FB66
:107CF000FFF70EFB4FF4007328462B8385F81A809C
:107D0000FFF7EAFED4E7074E34E700BF00C80508D6
:107D1000037000F000C005500200040000C00350D2
:107D200081760008027000F0F0B587B0054616466F
:107D3000FFF794FB0446F0B90493104BCDE901160C
:107D40006A46A86A01A903960593FFF7F1FB04466A
:107D500088B995F8303073B92846FFF7EDFC28460E
:107D60000099FFF727FC95F83530032B03D0284600
:107D70002C76FFF7B1FE204607B0F0BD017000F091
:107D8000F7B51446906A01A9FFF7A2FBA36BA36B9A
:107D9000013BA363384B984230D094F83610019DD4
:107DA000002939D123689A6C12F4007229D0334A21
:107DB000A9602A614FF4007203F500539A6437F00A
:107DC0009FFFEF68064637B16A68AB682046D31A52
:107DD00029692A68B847A06A01A937F0F0FEA06AAD
:107DE0008588ADB2002D37D001A9FFF771FB204681
:107DF0000199FFF7DFFB304637F088FF012003B021
:107E0000F0BD996CC80523D51D49AA6029614FF4BE
:107E1000807203F50053D1E7022919D12368DA6C87
:107E200012F4007209D0154A03F500532A610022AA
:107E3000AA604FF40072DA64C1E7D96CC90507D5AE
:107E40000F49AA6029614FF4807203F50053F2E7ED
:107E500000232B61AB60B2E7012320462376FFF7B6
:107E60003BFE94F8353084F83050032BC3D02046C5
:107E7000FFF746FCBFE700BF0B7000F00D7000F08D
:107E80000C7000F0F0B587B004461646FFF7E6FA2E
:107E9000054658BB0493194BCDE90116059394F898
:107EA000363003962BBB23689B6903F0020313B99A
:107EB0002046FFF75FFC6A46E06A01A9FFF738FB3E
:107EC000054698B994F8313083B937F019FFE36A61
:107ED00006469B889BB233B120460099FFF792FB80
:107EE000012384F83430304637F010FF284607B0BD
:107EF000F0BD022BDCD123689B6CD6E7017000F04B
:107F0000044BD3F88420D206FBD4D3F88400C0F30A
:107F1000811070470040005038B5104B0546D3F82B
:107F200080300C4603F00303022B0BD0032B0DD043
:107F3000012B0FD1FEF7A6FC0E2305B1286004B17A
:107F4000236038BDFEF7E8FC0723F6E7FEF794FC54
:107F50000623F2E700231846EFE700BF0080005039
:107F600038B5184B0546D3F820010C4600F0070041
:107F7000062823D8DFE800F0040A0E16121A1E00A5
:107F8000012305B1286004B1236038BDFEF774FCFD
:107F90000523F6E7FEF7A6FC0323F2E7FEF7BCFC99
:107FA0000723EEE7FEF7B4FC0223EAE7FEF764FCE2
:107FB0000623E6E7FEF796FC0423E2E700231846D3
:107FC000DFE700BF0080005038B5174B0546D3F8F7
:107FD00028310C4603F00703013B052B20D8DFE8CE
:107FE00003F003131B0F0B17FEF746FC052305B127
:107FF000286004B1236038BDFEF73EFC0623F6E797
:10800000FEF78AFC0723F2E7FEF76CFC0323EEE79A
:10801000FEF768FC0423EAE7FEF77AFC0223E6E7B2
:1080200000231846E3E700BF0080005073B50D46FB
:108030000021114B0191D3F88041064604F003045E
:10804000022C13D0032C0CD0012C13D101A8FFF764
:1080500087FF10240EB1019B336005B12C6002B084
:1080600070BDFEF759FC07240190F3E7FEF750FCC2
:108070000190EFE70C46EDE700800050002337B594
:108080000193164B0546D3F820320C4603F0070344
:10809000042B21D8DFE803F0030B11161B0001238A
:1080A0000DB1019A2A6004B1236003B030BD0021F4
:1080B00001A8FFF789FF1223F2E7FEF72DFC072343
:1080C0000190EDE737F027FC0A230190E8E7FEF77F
:1080D00065FC09230190E3E70023E1E700800050FD
:1080E00038B5104B0546D3F840310C4603F0030376
:1080F000022B0BD0032B0DD0012B0FD137F00BFC33
:108100000A2305B1286004B1236038BDFEF746FCA0
:108110000923F6E737F002FC0C23F2E701230020E5
:10812000EFE700BF00800050002337B50193164BE6
:108130000546D3F860320C4603F00703013B032BDE
:108140001FD8DFE803F0020E1914002101A8FFF781
:1081500007FF10230DB1019A2A6004B1236003B018
:1081600030BD002101A8FFF7BBFF1123F2E7FEF7A6
:10817000D3FB07230190EDE7FEF7CAFB0223019032
:10818000E8E70023E6E700BF00800050002337B592
:108190000193164B0546D3F894320C4603F00703BF
:1081A000013B032B1FD8DFE803F0020E1914002156
:1081B00001A8FFF7D5FE10230DB1019A2A6004B182
:1081C000236003B030BD002101A8FFF789FF112310
:1081D000F2E7FEF7A1FB07230190EDE7FEF798FB1E
:1081E00002230190E8E70023E6E700BF008000508B
:1081F00038B5144B0546D3F800020C4600F00700D2
:1082000004281BD8DFE800F003090D111500012335
:1082100005B1286004B1236038BD37F07CFB0A2328
:10822000F6E7FEF7BBFB0923F2E737F077FB0C23F9
:10823000EEE7FEF741FB0F23800AE9E7002318462B
:10824000E6E700BF0080005038B5144B0546D3F870
:1082500008020C4600F0070004281BD8DFE800F0F5
:1082600003090D111500012305B1286004B1236035
:1082700038BD37F050FB0A23F6E7FEF78FFB0923E2
:10828000F2E737F04BFB0C23EEE7FEF715FB0F236D
:10829000800AE9E700231846E6E700BF00800050A7
:1082A00038B5104B0546D3F840320C4603F00303B3
:1082B000022B0BD0032B0DD0012B0FD137F02BFB52
:1082C0000A2305B1286004B1236038BDFEF766FBC0
:1082D0000923F6E737F022FB0C23F2E70123002005
:1082E000EFE700BF0080005038B5104B0546D3F8CB
:1082F00060310C4603F00303022B0BD0032B0DD08F
:10830000012B0FD137F007FB0A2305B1286004B118
:10831000236038BDFEF742FB0923F6E737F0FEFA8B
:108320000C23F2E701230020EFE700BF008000509C
:10833000B0F5207F1FD009D8B0F5007F15D003D845
:1083400068B1B0F5C07F0AD000200CE0B0F5607FC6
:10835000FAD10B4BD3F88000C0F3011003E0084BB7
:10836000186FC0F3033001307047054BD3F890000D
:10837000C0F30460F7E7024B186FC0F38020F2E708
:108380000080005002464FF48030104B10B59866C4
:108390000020FFF7CDFF504341F671320C4BDC69F2
:1083A000DA635A6804F4803422F4401259B9094956
:1083B000884294BF00200120000502435A600CB19E
:1083C0000022DA6310BD0449F2E700BF00900050BC
:1083D00000000350005A6202002D3101430905D00C
:1083E000012B0CD0022B084B18BF002300F01F00FC
:1083F00039B103F58053012282401A607047034B64
:10840000F4E703F50053F6E76880005064800050FD
:108410001FB5002180280446CDE9001100F0A58099
:1084200035D85E2846D85E2844D8DFE800F0A2435D
:10843000434343434343434343434343434343430C
:108440004343434343434343434343434343A2AA36
:10845000A2AABABABABABAAAC44DDA714DAAAAAADD
:108460004343434343434343AAAAAA79E4AA434369
:108470004343434343434343434343BAA2A2A2DF9C
:108480004D4DE9885EBF434343434399A200B0F595
:10849000B06F00F090802DD8B0F5207F71D00CD84F
:1084A000B0F5C07F65D0B0F5007F65D0B0F5807FB6
:1084B00000F08680009804B010BDB0F5607F6BD0EE
:1084C0000DD8B0F5407FF5D1FEF7F6F902464FF42E
:1084D0002070FFF72DFFB2FBF0F252085AE0B0F522
:1084E000806F5ED0B0F5A06FE4D100216846FFF741
:1084F000C5FDDFE7B0F5106F78D016D8B0F5E06FA6
:1085000079D00AD8B0F5C06F6BD0B0F5D06FD1D1AB
:1085100000216846FFF76CFECCE7B0F5F06FC9D1DB
:1085200000216846FFF7E0FEC4E7B0F5406F3DD09C
:1085300013D8B0F5206F63D0B0F5286FBAD1002101
:10854000324B0391D3F8703203F00303012B02D1B5
:1085500003A8FFF7C5FD039B3CE0B0F5486FA9D128
:1085600000216846FFF712FEA4E7FEF78BF90090A2
:10857000A0E7FEF7A1F9FAE7FEF784F902462046E4
:1085800004E0FEF799F902464FF42070FFF7D0FEA1
:10859000B2FBF0F200928DE701A8FFF7BDFC019A53
:1085A000EDE700216846FFF7DBFC83E70021684622
:1085B000FFF70AFD7EE700216846FFF737FD79E700
:1085C0004FF0E02302911B695B0705D5FEF774F9B4
:1085D0000290029B00936DE703A902A8FFF780FDBC
:1085E000F7E700216846FFF77BFD63E70021684657
:1085F000FFF72AFE5EE700216846FFF751FE59E7C4
:1086000000216846FFF790FD54E700BF008000504E
:1086100008B58020FFF7FCFE034B98429EBF4FF445
:108620008032024B1A6708BD005A620200A0005057
:108630001FB503460020B3F5807F019000F0C18094
:1086400064D85D2B55D84C2B07D82D2B48D8232B1D
:108650002CD8019805B05DF804FB4D3B102BF8D8E1
:1086600001A252F823F000BFB98700085386000822
:1086700053860008538600086F8700085386000859
:10868000538600083D8800088D870008338700085E
:108690003388000853860008538600085386000874
:1086A000538600085386000847880008243B092B9E
:1086B000CFD801A252F823F0B9870008B987000883
:1086C000B9870008B9870008B987000853860008F1
:1086D000AF870008538600084F870008EF8700081F
:1086E0003D2B7FD03E2BB4D1002001A9FFF7D8FD50
:1086F000AFE7802BADD1594B1B6F03F00703013B54
:10870000032BA6D8DFE803F0514E858DB3F5F06F4B
:1087100068D021D8B3F5B06F49D00FD8B3F5607FDA
:1087200000F0838095D3B3F5806F45D0B3F5A06F8B
:108730008FD1002001A9FFF7A1FC8AE7B3F5D06F24
:1087400055D0B3F5E06FCFD0B3F5C06F81D1002025
:1087500001A9FFF7C5FC7CE7B3F5206F6ED00BD8FD
:10876000B3F5086F48D0B3F5106F7FF472AF0020F7
:1087700001A9FFF769FD6CE7B3F5406F59D0B3F578
:10878000486F60D0B3F5286F7FF463AF334BD3F8F5
:10879000703203F00303012B5AD0022B0CBF1523B8
:1087A000002300E00523019353E70223FBE70020A9
:1087B00001A9FFF73BFC4CE7002001A9FFF7D0FB24
:1087C00047E74FF0E02302901B695B0705D5FEF7F2
:1087D00073F80D230393039BE5E703A902A8FFF7B2
:1087E0007FFCF8E7002001A9FFF77EFD31E70020BC
:1087F00001A9FFF7FDFC2CE7184BD3F8003103F07B
:108800000303022B07D0032B09D0012B0BD1FEF75A
:1088100069F80323C7E7FEF7C1F80923C3E737F078
:1088200078F80823BFE70123BDE701A9FFF774FB30
:108830000FE7002001A9FFF7C7FB0AE7002001A905
:10884000FFF772FC05E7002001A9FFF79FFC00E796
:10885000002103A8FFF744FC1123A4E70080005087
:108860004FF48012034B5A664FF48032024B9A62E7
:10887000704700BF009000500050005A38B50446C1
:108880008020FFF7D5FE032800F083804FF480128C
:10889000524B4FF0A0615A6645F60E02504BC3F89A
:1088A0008020504A91624FF4803102F580529162EB
:1088B0009A6DD203FCD4996D11F08041FBD1D4E9BB
:1088C0000002120542EA0062E07B0243207B42EA9A
:1088D0000042607B42EA0032A07B42EA80121A61C9
:1088E0009869D4E90452120642EA856200F0004019
:1088F0000243A07EE57E0243207E42EA0042607E83
:1089000042EA00229A611A6AE06922F00F0242EA02
:108910008502354D00283DD11A6294F82420996AC9
:1089200094F82000D200294042EA40120A4394F809
:10893000211042EA011242F480329A622B49284AFD
:10894000936D31EA0303FBD14FF0807125488162BA
:108950001369A56823F4700343EA055313614FF0CC
:108960000043836194F822300BB9214B996294F84B
:1089700023303BB94FF480321D4B9A62184A936DF5
:108980005B00FCD494F825301BB1154B194AC3F891
:10899000802038BD024342F0080202281A6208D142
:1089A00019614FF40852996113484FF47F4137F031
:1089B00065F90B4994F822308A6A94F820001B0666
:1089C0002A4043EA4013134394F8242043EAC203A5
:1089D00094F8232043EA02438B62D3E700900050CF
:1089E0000040005A0050005AC7FFFEFE030001007D
:1089F0000060005AF1A7FFFF3440005A014B93F981
:108A000000007047E8140020F0B5D0E901434FF4AE
:108A100000061A4A4178057856664FF4D156022767
:108A200002F5B8325662164E4F2977604FF00107B3
:108A300028BF4F2106F5805677601669F603FCD4EF
:108A400041EA052151611B01417B43EA04230B43A9
:108A5000017B43EA41039360C37B817B1B0143EAB3
:108A60004113417C0B43017C43EA41035360837C07
:108A700013B16FF4D1535362F0BD00BF00900050AA
:108A800000100250014B1880704700BFDA1400201C
:108A9000014B1880704700BFD8140020B0F5207F2C
:108AA00010B50C465DD008D8B0F5007F4ED003D885
:108AB000C0B1B0F5C07F15D010BDB0F5607FFBD15F
:108AC0002C4B4C1ED3F8FC202B4912F0807F4FEA30
:108AD000041427D1D1F8803023F030032343C1F8A8
:108AE0008030E9E737F0D9F837F0E5F84FF4803116
:108AF000224B214A1967136F013C23F4704343EA68
:108B000004331367FDF7D8FE0446FFF7F9F9C0F107
:108B10000201204637F0C9F800F042F8BDE81040E5
:108B2000FFF776BDD3F8FC2022F08072C3F8FC205A
:108B3000D1F8802022F030022243C1F88020D3F8FF
:108B4000FC2042F08072C3F8FC20B5E70A4A4C1EB4
:108B5000D2F8903023F0F85343EA0463C2F890301F
:108B6000AAE7054A4C1E136F23F4806343EA84236B
:108B70001367A1E700ED00E0008000500090005076
:108B800008B50121022000F079F837F086F837F0B7
:108B900092F84FF48032014B1A6708BD00900050E4
:108BA00008B54FF4C070FFF733FCBDE80840044936
:108BB000884294BF012102214FF42070FFF76EBF5D
:108BC00080F0FA020028ABBF00F16040054B00F5D1
:108BD000614000F00F00ACBF90F80003185C000982
:108BE000704700BF14ED00E0054B420953F82230F6
:108BF00000F01F0023FA00F0C04300F001007047AE
:108C000000E100E0014608B5EFF31083DB0702D571
:108C10000122104608BDFFF7E7FF02460028F7D102
:108C20000846FFF7CFFF0146EFF3118313B1B0EB16
:108C3000131FEDD2074B5B68C3F30803002BE8D08A
:108C4000103B58B2FFF7BEFF88428CBF00220122C2
:108C5000DFE700BF00ED00E0024A536B0342FCD1A6
:108C6000704700BF00400950034A0179D36E23F0DA
:108C700030030B43D366704700400050F8B50446FC
:108C80001C4BD3F88420D106FBD4D3F88430C3F333
:108C900081139C422CD0FDF7F5FD012C064602D134
:108CA000214637F002F837F020F84FF00072124BEF
:108CB00007465A66204637F02CF84FF480630D4D76
:108CC000621E93402B676B6E9A0103D4D5F88430F3
:108CD0009B060AD5384637F00CF8022C08D13046EE
:108CE000BDE8F840002136F0E0BFD5F88430EAE76F
:108CF000F8BD00BF004000500060005010B50C46A9
:108D000008B9FDF7BFFD074B21461B783BB1064B69
:108D1000984204D80120BDE81040FFF7AFBF022001
:108D2000F9E700BF86860020005A62024FF0004239
:108D300038B5244B244C5A664AF6CD33656C01464F
:108D400005F00105236428BB0120FFF785FF636858
:108D5000DB0715D51D4B586008461D4B226BD2070B
:108D60000CD4984208D1072415B1174B194A1A643C
:108D700052F0E4FB204638BD0130EFE79842F2D0D4
:108D80000024F1E70132236B13F0080305D08A4277
:108D9000F8D1E8E700220E49F5E78A42E3D0202126
:108DA0000A4A91620121A2F5805251600649084A9F
:108DB000886A800603D49342D5D00133F8E7934202
:108DC000DDE700BF009000500040095000600950EE
:108DD00040420F003254FFFF4FF0004238B5164BAF
:108DE00001465A664AF6CD33144C154A656C236425
:108DF00043780B205B0043F00103D363FFF72CFFA4
:108E000063688A7823F4F87343EA02136360CA78CC
:108E10004B7943EA0223A3600A798B7943EA022360
:108E200023610878FFF782FFEB0744BF054B2364FB
:108E300052F084FB012038BD0090005000400950E2
:108E4000004000503254FFFF4FF00042124B70B50B
:108E50005D6E03F580535A664AF6CD3304460F49DA
:108E600080204E6C0B64FFF7F7FE0B6A23F00F03B4
:108E70000F2C94BF234343F00F030B62F30744BF4F
:108E8000074B0B64002DA2BF4FF00042054B5A6602
:108E900052F054FB70BD00BF0080005000400950EC
:108EA0003254FFFF00A000504FF00042104B70B54D
:108EB0005D6E03F580535A664AF6CD3304460D497C
:108EC00080204E6C0B64FFF7C7FE0B6A23F4F85347
:108ED00043EA04230B62F30744BF074B0B64002DE6
:108EE000A2BF4FF00042054B5A6652F027FB70BDFF
:108EF00000800050004009503254FFFF00A0005095
:108F0000072A2DE9F041154698464FF0030401F079
:108F100003072DD89600B44000FA06F221461C48FB
:108F200036F03DFF21461B4807FA06F236F037FFC0
:108F3000194B1A499DF81800B8F1000F18BF1946CF
:108F4000012303FA05F50D60154B1649002818BFDB
:108F50000B461D60144B9DF81C00C3F820541031C3
:108F600003F22443002818BF0B461D60BDE8F081C2
:108F7000A2F10806B600B44000FA06F221460B48FA
:108F800036F00DFF21460A4807FA06F2CEE700BF89
:108F900000C4035008C4035010D4035010E403501D
:108FA00014E4035014D4035000E0035004C40350ED
:108FB0000CC403502DE9F04105460F461E4690466D
:108FC0004AB101233022194C8B4002FB004436B3D6
:108FD00004F5825423600F21072F05EB450388BF5A
:108FE000A7F108044FEA0313114895BFBC00A40081
:108FF00004330C3308FA04F2A140184436F0CFFED3
:10900000B8F1000F09D101233021084ABB4001FB10
:1090100005223EB102F582521360BDE8F08104F5ED
:109020000154D7E702F50152F6E700BF00C0035034
:1090300030C00350044A054B002908BF13460122E3
:1090400082401A60704700BF401004504020045016
:1090500010B5012104462020FFF7C0F9012121208D
:10906000FFF7BCF90122114B5A60227812069A6070
:109070006178A27842EA01429A61FF229A62002254
:109080009A631A644FF000425A654FF0FF324FF472
:10909000001103F500531A65054AC2F88011E37800
:1090A0001B01DBB282F81533116010BD00000450C3
:1090B00000E100E0F8B50125C3B2D1F800E091F875
:1090C0000AC00F7B0C469D40CB7A1D491D4E0D6595
:1090D000810001F1A04101F58821C1F804E04FF0C1
:1090E000300E0EFB00601B05617B43EA0C4343EA34
:1090F000475322F003020166C365026736F000FEA3
:10910000736D2B437365237A13B1336C2B43336434
:10911000637A13B1B36B2B43B3632279A37943EA28
:109120000243074A93616179E37943EA01430649BF
:109130008B61044B55639D64BDE8F84036F0E6BD95
:1091400000200450000004500010045010B5012409
:10915000C0B2844036F0D4FD044B5A6D22EA0402BA
:109160005A659C62BDE8104036F0D0BD0000045046
:10917000F8B50125C3B204469D4036F0C1FD30224A
:10918000094B1E6D5F6B02FB04335C6E36F0BEFD57
:109190003D4206D1C4F30A1008B9354200D101306E
:1091A000F8BD0020FCE700BF000004504FF48032FF
:1091B000054B9A6641F6713203F51C33DA630122DE
:1091C00003F50053DA6070470090005041F67132A9
:1091D0000121064BDA6303F50052D1600022DA6305
:1091E0004FF48032A3F518339A667047000003509D
:1091F000013831289ABF024B185C0020704700BF2D
:109200003CC80508021E30B54FF000000CBF102509
:10921000042547F60774084952B9831D51F82330D5
:10922000234023B101308542F6D14FF0FF3030BDED
:1092300000F11603F2E700BF0080035038B5C2F317
:109240000625044602F0070241B942EA052242F42B
:1092500040220634074B43F8242038BD11462846E7
:1092600036F0ADFD02462846FFF7C2FF163442EA4B
:109270000022EFE700800350014BD3F894007047C1
:10928000004000504FF48032064B5A6603F5E62347
:109290009B69C3F38512827003F03F021B0B42707F
:1092A000037070470090005040F6B732064B5B6881
:1092B0009BB293429FBF4FF47A72B3FBF2F3034A1F
:1092C000D05C88BF002070470080E00F6EC80508A2
:1092D000014B986CD96C70470080E00F0120034B64
:1092E0009B680A3303F01F03984070470080E00F2B
:1092F00070B5054616461C4621B94FF42070FFF79D
:1093000087F80146402C1BD003D8DCB1202C1BD0A1
:1093100070BD602CFCD1042303FB06F2530803EB61
:109320004113B3FBF2F3094A203B02EAC303AA68E4
:1093300022F06002AA60AA681443AC60EB61E7E720
:109340000623E9E71023E7E70823E5E7F8FF7F00B6
:10935000F8B5154E1C4615460E40FAB9202B05D01F
:10936000402B1ED0002B0CBF10244024012306F5F7
:1093700080765E4300233246194635F0E7F902FB5A
:1093800005F100FB04F704FB0311A2FB0404002316
:109390003246214435F0DAF93844F8BD80240025FE
:1093A000E4E780240323E2E7F8FF7F00012100F5D2
:1093B000805310B5596040F6AA6341F2050243613B
:1093C0000023094C8360C365C26000F5005203614D
:1093D000C361C3649464054C8365A04204BF036504
:1093E0004365516010BD00BFFFFF010000C0055084
:1093F00070B50D46FFF7DAFF012300F58056736064
:10940000AB7C04461BB1836843F080438360EB7CF4
:109410005BB1244B9C4202BF2A7DA3F51033C3F8F5
:10942000C821E36D43F08003E3652A8A6B7B204605
:109430001343EA891343E3602B7BD5E90112FFF75D
:1094400057FF6B7D1BB1A36843F48033A360AB7DF2
:109450001BB1A36843F40043A360EB7D2A7E1B0786
:10946000120502F4E00203F0E0431343A3656B7EB0
:109470009A1E012A4FF0020209D80B49032BC1F8AA
:10948000202709D10423F3652B78636170BD074958
:10949000012BC1F82027F4E7042204F50053DA6514
:1094A000F2E700BF00C0055000D0035000E00350B9
:1094B00038B50D46FFF77AFF012200F580535A6058
:1094C0002B8AA97B826843F0010343EA812313437B
:1094D000836083682A7D044643EA42738360AB7CE1
:1094E0005BB1194B984202BFEA7CA3F51033C3F875
:1094F000C821C36D43F08003C3652B7B2046D5E9AB
:10950000011243F48053E36036F0CCFC6B7B0BB16B
:10951000102363616B7D1BB1A36843F48033A360A8
:10952000AB7D1BB1A36843F40043A360EB7D2A7EAF
:109530001B07120503F0E04302F4E0021343A365A6
:109540002B78636138BD00BF00C00550034B5A68DB
:10955000D20702D5DA69002AF9D1704700800A5093
:10956000054B9A689107FCD45A689207F9D4DA69D6
:10957000002AF6D1704700BF00800A5008B5FFF7F7
:10958000E5FF0222014B1A6108BD00BF00800A50AE
:1095900008B5FFF7E5FF0122024B03F580514A6051
:1095A0001A6108BD00800A5008B5044B59680129AA
:1095B00003D1FFF7E3FF024B596008BD00800A505A
:1095C00000A00A5010B5064CFFF7CAFF6368012BD4
:1095D00003D1FFF7E9FFFFF7C3FF0378E36010BD96
:1095E00000800A50B8B94A680B7812B1127843EA81
:1095F000C2034A7843EA42038A6812B1127843EA06
:1096000082138A7843EA8203CA6812B1127843EA65
:109610004223014A9364704700800A5008B9014B05
:109620005964704700900A5008B9014B596470475B
:1096300000A00A5008B9014B1964704700A00A50F5
:1096400010B9024B186C70470020704700800A5018
:1096500048B911B1012903D07047044BD86C704749
:10966000024B186D70470020704700BF00800A5001
:1096700040B911B1012903D07047034BDA64704738
:10968000014B1A65704700BF00800A5038B5044688
:10969000054D51F068FF0FCC0FC594E8030085E835
:1096A0000300002038BD00BF8472002047F6FF731E
:1096B0009A42F0B56FD002296FD8394B5B5C012B11
:1096C0006BD8384DDF0005EBC30415F83330A178B3
:1096D000012B13D10025E078401AA84202D8084493
:1096E000C0B2F0BD431B6668A0EB530336F91360AC
:1096F0009642D4BF1D4603F1FF30EEE760680028B4
:10970000EFD0B0F90040944204DBB0F9024094423B
:10971000B8BF144683883D44FF2B19BFC8224FF0C1
:10972000280CB0F90620B0F908C0A2EB04030CBF66
:109730000126002693FBFCF333446E781BB29E4255
:1097400001DD002B01DA731E1BB24FF47A7C01336A
:109750009BB2071D5D1E2DB24FEAC50E00EBC5057D
:10976000EA88AD689E4214FB025222EAE27202F1DC
:109770005C02B2FBFCF204DD37F833500133954252
:10978000E8D200EB0E039888904228BF104688422A
:1097900038BF0846A4E7FF20A3E70020A1E700BFE9
:1097A00071C80508847200200229F0B555D82C4BE9
:1097B000585C012851D82B4C04EBC00114F8300040
:1097C0004B6801280FD1C8788C78904294BFC4EBC5
:1097D0000001C4EB0201001BCAB28242C8BF0022D2
:1097E00033F91200F0BD002B37D08878904202D3B5
:1097F000B3F90200F6E7CC78B3F900009442F1D94E
:109800004C789988013CA1F1FF06714203F10405EF
:10981000E4B2714103F10C07CEB2B44216D805EBA5
:10982000C1014FF47A756A43B1F902404968521A8E
:1098300004EBD47102EB610292FBF4F29042D1DBB3
:10984000B3F902009042CDDC10B2CBE737F831C05B
:109850004E1C9445E3D33146DEE70348C2E700BF20
:1098600071C80508847200200080FFFF0148FFF7DF
:109870000DBF00BF74C805087FB50222084B094917
:10988000CDE901234FF04073CDE90313052301A96E
:109890004FF0FF30059351F0CCFE07B05DF804FBAC
:1098A000006A1800000304004FF48062014B00209E
:1098B0009A667047009000504FF48062014B002080
:1098C0009A66704700A0005008B5B0B14FF48062AE
:1098D0000B4B9A6636F0B8FA4FF098435A6CD202A6
:1098E000FCD54FF48062586D064B10F470209A66D8
:1098F00004D0BDE8084036F00EBB212008BD00BFF3
:109900000090005000A000502DE9F0418CB0884636
:10991000DDE912761D460446002847D0002945D0CF
:10992000002F43D0002E41D013F00F033ED120482A
:109930002049A360002A08BF0146E361C4E900137F
:10994000404609A936F061FC68BB2046099936F00B
:1099500072FA2946204636F06EFA6946404600F013
:1099600087FF00BB6946204636F051FA404603A9FE
:1099700036F04AFDB8B9204603A936F048FA0697F2
:109980000127204645F0005506A90797089536F0AF
:109990003EFA204609A909960A970B9536F041FA36
:1099A0002046FFF791FF0CB0BDE8F0812120FAE7D7
:1099B00000010004000101042DE9F04792B089463E
:1099C000DDE91A681D4604461C9F002864D0002962
:1099D00062D0B8F1000F5FD0002F5DD0002E5BD0B9
:1099E00013F00F0358D12D482D49A360002A08BF5A
:1099F0000146E361C4E9001348460FA936F005FCAF
:109A0000002846D120460F9936F015FA29462046FF
:109A100036F011FA6946484600F02AFF002838D18E
:109A20006946204636F0F3F9484603A936F0ECFCC7
:109A300078BB4FF001092046DFF868A003A936F093
:109A4000E6F945F00055204606A90696CDF81C908B
:109A5000CDF820A0CDF82480CDF828900B9536F0D5
:109A6000D6F9204609A936F0D2F920460CA90C9760
:109A7000CDF834900E950F96CDF84090CDF844A0D7
:109A800036F0CFF920460FA936F0CBF92046FFF784
:109A90001BFF12B0BDE8F0872120FAE703020004A3
:109AA00003020104100000202DE9F04F97B0894611
:109AB00090461F460546DDF880A0002800F0BB80D8
:109AC000002900F0B8803AB1229B002B00F0B3804F
:109AD000239B002B00F0AF80BAF1000F00F0AB80A9
:109AE000219B002B00F0A78067B13C680026229BD9
:109AF00043440293464507D307B13C60002017B0AA
:109B0000BDE8F08F3C46F1E75CB1229B219A9B5D5A
:109B1000125D01345340239A04F00F04935501362B
:109B2000E8E7A8EB060BBBF10F0F58D9434B4846AB
:109B3000C5E90034AC60EC6113A936F066FB00287F
:109B4000DDD1284613992BF00F0B36F074F95946E6
:109B5000284636F070F9484604A900F089FE00282E
:109B6000CDD1284604A936F052F9484607A936F067
:109B70004BFC0028C3D1284607A936F048F9012339
:109B800022992F4ACDF828A00B930C928A190D9296
:109B900028464BF000520AA90E9303920F9236F01A
:109BA00036F928460DA936F032F9239B039A991904
:109BB0000123109111931292214A284610A9CDF841
:109BC0004CA01493159236F02CF9284613A936F0C0
:109BD00028F92846FFF778FE5E4400288FD1229BA3
:109BE00003EB060B239B1E44029B5B4501D14646BB
:109BF00080E7ACB9219B2246CDE900A3494610235A
:109C00002846FFF781FE00287FF479AF0AF11002A1
:109C100012F8013D0133DBB213700BB95245F7D195
:109C2000219A1BF8013B125D0134534006F8013BB9
:109C300004F00F04D8E7212061E700BF030300040C
:109C4000100000202DE9F04F97B0894615469A463E
:109C50000446209FDDF88880DDF890B0269E00281D
:109C600000F09D80002900F09A80002E40F08A804C
:109C7000002B00F09480B8F1000F0AD0219B002B3C
:109C800000F08D80002A40F09F80F10700F187806E
:109C900002E0002A40F08580FB1F062B7FD8524B44
:109CA0000BEB05029A427AD80023504A4846C4E991
:109CB0000023A360E36113A936F0A7FA00285ED160
:109CC0002046139936F0B7F8204646EA074136F0A9
:109CD000B2F84146204636F0AEF82946204636F026
:109CE000AAF8484601A900F0C3FD002847D1204644
:109CF00001A936F08CF8484604A936F085FB002807
:109D00003DD14FF00109204604A936F080F8239B8D
:109D100045F000550793219BCDF8209020460995EA
:109D20000DA90A9347F0005748F00053CDF82C9046
:109D30000C93CDF834A0CDF838900F9736F067F833
:109D400020460AA936F063F8204607A936F05FF8E6
:109D5000259B204610A946F00056CDF840B0CDF81E
:109D6000449012951393CDF85090159636F059F80B
:109D7000204613A936F055F82046FFF7A5FD17B089
:109D8000BDE8F08F259B53B1BAF1000F07D0B8F1B1
:109D9000000F01D0219B13B1B5B9022E20D1212093
:109DA000EDE7239B002BFAD0BBF1000FF7D0C7F1F2
:109DB0000F03DBB2032B3FF668AF0122DB0002FA90
:109DC00003F3AB42EBD9E8E7239B002BE7D0BBF1D1
:109DD000000FE4D0C7F10F03DBB2032BDDD8ECE7B3
:109DE000102E7FF652AFDAE7FFFF032000000504D4
:109DF0002DE9F04F99B0884615469B460446229FB0
:109E0000DDF89890289E60B159B1279B4BB1BBF10A
:109E1000000F06D0249B0BB1239B13B11DB9022E5A
:109E200013D121239AE0259B002BFAD0B9F1000F22
:109E3000F7D0C7F10F03DBB2032BF0D80122DB0010
:109E400002FA03F3AB42ECD9E9E7731E0F2BE8D813
:109E500016F0010AE5D1FB1F062BE2D8414B09EBB6
:109E600005029A42DDD8404B4046C4E9003AC4F8A6
:109E700008A0C4F81CA015A936F0C7F903460028AD
:109E80006CD12046159935F0D6FF204646EA0741A9
:109E900035F0D1FF2046249935F0CDFF29462046E4
:109EA00035F0C9FF404603A900F0E2FC0346002854
:109EB00054D1204603A935F0AAFF404606A936F042
:109EC000A3FA0346002849D14FF00108204606A90D
:109ED00035F09DFF259B2046099345F00053CDF8B2
:109EE000288001930B93239B0FA90C93249B47F08D
:109EF000005743F00052CDF834800E92CDF83CB0BC
:109F0000CDF84080119735F082FF20460CA935F03E
:109F10007EFF204609A935F07AFF019B204612A951
:109F2000CDF84890CDF84C80149335F07AFF279BFC
:109F3000204615A946F000561593CDF8588017967F
:109F400035F065FF2046FFF7BFFC034630B10190B6
:109F50002A465146484652F0E1F8019B184619B08E
:109F6000BDE8F08FFFFF0320000006042DE9F0415B
:109F70008CB0884616461D460446129F00284BD0DA
:109F8000002949D0002A47D0002F45D00B68103B4C
:109F9000102B41D8214A22FA03F3D9073CD50023DC
:109FA0001F4A8360C0E90023C36109A9404636F017
:109FB0002CF970BB2046099935F03DFF2946204613
:109FC00035F039FF6946404600F052FC08BB69464F
:109FD000204635F01CFF404603A936F015FAC0B9FB
:109FE000204603A935F013FF06960126204606A950
:109FF00045F000550796089535F009FF094B2046B6
:10A0000009A909970A960B9335F00BFF2046FFF735
:10A010005BFC0CB0BDE8F0812120FAE701010100F2
:10A020000000040410000020F0B50C4617461E4640
:10A03000054695B0002874D0002972D0002A70D04F
:10A04000002B6ED0036B0F2B5BD80023364A3846AB
:10A05000C4E90023A360E36111A936F0D6F8002813
:10A060005BD12046119935F0E6FE296B20460F2979
:10A0700084BF01F00F01103135F0DDFE384602A932
:10A0800000F0F6FB002848D1204602A935F0BFFEBB
:10A09000384605A936F0B8F900283ED1204605A972
:10A0A00035F0B5FE0122214B089509920A932B6BDE
:10A0B00005F1100003F00F0141F000510B900F2B40
:10A0C0000C920D910E900F9243F00052109226D9EF
:10A0D0000A9B08A923F0005320460A9335F097FE07
:10A0E0000BA9204635F093FE0123119612930F4BD6
:10A0F000204611A9139335F094FE2046FFF7E4FBA8
:10A100000BE000F120030190009301221023394657
:10A110002046FFF7F9FB002897D015B0F0BD0EA937
:10A12000DFE72120F9E700BF000004041000002051
:10A130002DE9F04F9BB00C4690461F460546DDF8D2
:10A140009090002800F0B280002900F0AF80002A33
:10A1500000F0AC80002B00F0A980026B02EB090339
:10A160001B09B3EB121F02F00F0600F097800023CB
:10A170004F4A8B60C1E90023CB61404617A936F0F6
:10A1800044F80346002840F0858006EB090B204682
:10A1900017992BF00F0A35F04EFE5146204635F048
:10A1A0004AFE404602A900F063FB0346002871D135
:10A1B000204602A935F02BFE404605A936F024F9C9
:10A1C0000346002866D14FF00108019005A92046FA
:10A1D00035F01DFE374A204608A90895CDF82480A1
:10A1E0000A9235F014FE46F00051AAEB060605F17E
:10A1F000100346F000560B93CDF830800D910E976A
:10A20000CDF83C8010960D99204621F000510D911B
:10A210000BA9009335F0FBFD20460EA935F0F7FDA4
:10A22000019B244A1193AAF1100343F00053CDF887
:10A230004880139305F120031493CDF854801692AF
:10A24000139B204643F080431393139B11A923F0E3
:10A250000053139335F0E5FD204614A935F0E1FDD8
:10A26000144A17A920461795CDF86080199235F049
:10A27000D8FD2046FFF728FBAAEB0B0149440190CB
:10A28000ABEB0A020098394451F080FF019B2A6B26
:10A290004A442A6318461BB0BDE8F08F10304A4686
:10A2A0003946304451F072FF0023F0E72123F1E7F3
:10A2B00003020004100000202DE9F0438DB0894610
:10A2C000DDE914681F460446002850D000294ED00E
:10A2D000002B4CD0B8F1000F49D0531EDBB2042B39
:10A2E00045D82449CD5C169B9D4240D8224B09A9F4
:10A2F00003EB022303600023C0E90133C361484636
:10A3000035F083FF80BB2046099935F094FD314636
:10A31000204635F090FD6946484600F0A9FA18BB82
:10A320006946204635F073FD484603A936F06CF8BF
:10A33000D0B9204603A935F06AFD069701272046CB
:10A3400006A946F00056079745F00055089635F0E7
:10A350005EFD204609A9CDF824800A970B9535F0BB
:10A3600060FD2046FFF7B0FA0DB0BDE8F083212074
:10A37000FAE700BFCCCE0508000102032DE9FF4734
:10A380004FF000080E4617460446CDF8008000281E
:10A3900059D022B90025284604B0BDE8F08700292D
:10A3A00051D032F0030902F0030A1FD04FF0E063EE
:10A3B000C0E9003801230191C0F808800293C0F879
:10A3C0001C8049F0005301A9039335F02AFD49464A
:10A3D000204635F030FD2046FFF776FA054628B1D5
:10A3E0004A464146304651F099FED4E7BAF1000F93
:10A3F000D0D04FF000084FF0E063C4E900380123EB
:10A40000CDF804D00293114B204601A9C4F808806E
:10A41000C4F81C80039335F004FD0421204635F078
:10A420000AFD2046FFF750FA054608B13A46D8E73C
:10A43000009A4E44EB00013522FA03F3AA4506F8D0
:10A44000013BF7D1A6E72125A5E700BF04000020C6
:10A450002DE9F0410F4601780446013990468AB053
:10A46000042947D8DFE801F00332373C410040259A
:10A47000142621490C3400225D43C7E90122FA6108
:10A4800038463960294635F0D6FC0123384646F077
:10A49000005604A945F00055CDF8048002930395B9
:10A4A00004940593069607940893099635F0AFFC3B
:10A4B000384601A935F0ABFC384607A935F0B1FCA8
:10A4C0003846FFF701FA0AB0BDE8F08140252026A2
:10A4D0000A490C34CFE74025202609490C34CAE745
:10A4E0008025402607491434C5E7802540260649C3
:10A4F0001434C0E72120E6E7000201030003010352
:10A5000000040103000501030006010310B591B129
:10A5100088B10023C0E90133084B00F10C0203F1BC
:10A52000200153F8044B8B4242F8044BF9D102232B
:10A530000370002010BD2120FCE700BFD1CE05082C
:10A5400010B591B188B10023C0E90133084B00F187
:10A550000C0203F1200153F8044B8B4242F8044BE8
:10A56000F9D103230370002010BD2120FCE700BFB8
:10A57000F2CE05082DE9F04F0D46904604468BB00B
:10A5800000287DD000297BD0002A79D00278013ABA
:10A59000042A75D8DFE802F0030C58606B0014271A
:10A5A000394A00F10C0B00F1040A2C34B94608E0DA
:10A5B00020274FF01C09354A00F10C0B00F1040A6A
:10A5C0002C34402199455BD80AF104030AEBD106EB
:10A5D00053F8040B002855D1B342F9D1DAF8003012
:10A5E000013901EA0306C5E900203146A860E861A7
:10A5F000284635F020FC2846DAF8001035F01BFC20
:10A60000012249F00053284601A947F0005746F0BF
:10A610000056CDF804B00292039704940592069672
:10A62000CDF81C800892099335F0F1FB284604A967
:10A6300035F0EDFB284607A935F0F3FB2846FFF778
:10A6400043F90BB0BDE8F08F2027114A00F10C0B45
:10A6500000F1040A2C34A9E740274FF030090D4AD5
:10A6600000F1140B00F1040A54348021AAE74027BA
:10A67000094AB94600F1140B00F1040A5434F4E716
:10A680002120DEE70F20DCE70002030300030303C1
:10A690000004030300050303000603032DE9F04350
:10A6A00087B00D4691461E460446DDF838800028E6
:10A6B00036D0B8F1000F33D002B98BBB6B1EDBB2C2
:10A6C000042B2DD8174AD75C0F9B9F4228D8002314
:10A6D000280200F1407000F580703146C4E9013372
:10A6E0002060E361204635F0A6FB01236946204641
:10A6F00046F0005647F00057CDF8009001930296BF
:10A70000CDF80C800493059735F081FB204603A912
:10A7100035F087FB2046FFF7D7F807B0BDE8F08398
:10A720002120FAE713CF0508F0B50F4616461D465F
:10A73000044693B010B9212013B0F0BD0029FAD01F
:10A74000002AF8D0002BF6D0002331461A463846AE
:10A7500035F000FD0028EFD1304602A935F096FC17
:10A760000028E9D1EB68022B0AD039683F48029AE9
:10A7700081426B6902D01830814270D19A42DAD896
:10A780002B68002BD7D14FF060623846C4E9002314
:10A79000A360E36101A935F038FD0028CCD101990F
:10A7A000204621F4F061019135F045FB69462846C9
:10A7B00035F02BFD0028BFD12046009935F03BFB3A
:10A7C000384609A900F054F80028B5D1204609A957
:10A7D00035F01DFB38460CA935F016FE0028ABD12C
:10A7E00020460CA935F013FBEB684BB1284606A9AF
:10A7F00000F03EF800289FD1204606A935F007FB5F
:10A80000304603A935F000FE002895D1B368DA047C
:10A810000CD59B0427D50621F36932691B6801FB1F
:10A8200003225B0043F0005303920593204603A9E3
:10A8300035F0EDFA28460FA935F0E6FD00287FF443
:10A840007BAF20460FA935F0ECFA03252046FFF731
:10A850003BF801287FF470AF013DF7D16CE7B3EB13
:10A86000420F8DD267E7292066E700BF200000B0C5
:10A8700090B189B101234B60C368013B012B08D81B
:10A880008269064B1AB10A6000208B607047044A47
:10A89000F9E74FF00053F7E7212070470800002048
:10A8A00018CF050870B50E46154604468AB0002834
:10A8B0005BD0002959D0002A57D0012329461A46D7
:10A8C000304635F047FC00284DD1B36813F4C04F33
:10A8D0004BD0AB6803F4C043B3F5005F45D1254BC3
:10A8E000A060C4E90030E06107A9304635F08DFC76
:10A8F000002838D12046079935F09DFA304601A945
:10A90000FFF7B6FF78BB204635F081FA304604A940
:10A9100035F07AFD38BB204604A935F078FAEB68AB
:10A920001BBBAB6803F4C043B3F5005F1DD16946A0
:10A93000284635F0D6FBB0B9009B6A699A4216D317
:10A940002A6943F0005307920122204607A9089282
:10A950000325099335F065FA2046FEF7B5FF012877
:10A9600001D1013DF8D10AB070BD2120FBE71D20C7
:10A97000F9E700BF000001022DE9F04391B00D4658
:10A98000DDE918760446DDF8688000286DD00029DE
:10A990006BD0002F69D0B8F1000F66D0096801F0C4
:10A9A0007041B1F1404F5BD0002B5BD1531E042BA3
:10A9B0005BD8120202F1C06202F5807200232846C1
:10A9C000C4E901332260E3610DA935F01EFC0028C3
:10A9D00043D120460D9935F02EFA3146204635F008
:10A9E0002AFA284601A9FFF743FF002835D120465F
:10A9F00001A935F00CFA284604A935F005FD60BB25
:10AA00004FF00109204604A935F001FA46F000563E
:10AA1000204607A90797CDF82090099635F0F7F959
:10AA20002B680A9703F07043B3F1404FCDF82C9098
:10AA30000C9603D120460AA935F0E9F90123CDF897
:10AA400034800E931B9B204643F000530DA90F93B7
:10AA500035F0E7F92046FEF737FF11B0BDE8F08387
:10AA6000034AABE74FF0C062A8E72120F5E700BF3B
:10AA7000000002062DE9F0418CB00D46DDE912869A
:10AA80000446149F002867D0002965D0B8F1000F54
:10AA900062D0002F60D0896889045DD5296801F0F3
:10AAA0007041B1F1404F4DD0002B4DD1531E042BBE
:10AAB00052D82A4B03EB022200232846C4E9013373
:10AAC0002260E36109A935F0A0FB002837D12046B8
:10AAD000099935F0B0F93146204635F0ACF96946B0
:10AAE0002846FFF7C5FE50BB6946204635F08FF972
:10AAF000284603A935F088FC08BB204603A935F099
:10AB000086F9012346F00056CDF818800793089681
:10AB100009970A93159B43F000530B932B6803F09E
:10AB20007043B3F1404F11D109A9204635F06FF9B8
:10AB300006A9204635F06BF92046FEF7C5FE0CB09D
:10AB4000BDE8F081064AB7E7064AB5E706A9204600
:10AB500035F05DF909A9ECE72120F0E700010106D5
:10AB6000000003060000010610F1860F06D038B180
:10AB70009330044808BF6FF06F0070476FF07100AA
:10AB8000704700BF009FFFFF70B58CB004460D46B4
:10AB90001646002122220DF10E0051F0BFFA4FF4AB
:10ABA0001053ADF80C3054B3236843B33DB39B79D5
:10ABB000032B1CD0042B1CD0022B23D18023206C10
:10ABC0004FF4AE71ADF80E30B0B9012037F04CF84B
:10ABD000D8B120640E4B2A460093206CF30803A9D9
:10ABE00002F040FD0CB0BDE87040FFF7BDBFC023D0
:10ABF000E5E74FF48073E2E706F048FDEAE7054831
:10AC00000CB070BD6FF07100FAE70348F8E700BFC1
:10AC10000002C003009FFFFF809EFFFF10B550B1F0
:10AC2000046844B139B1006C28B102F0DFFDBDE821
:10AC30001040FFF799BF014810BD00BF009FFFFF04
:10AC400007B578B102686AB1006C58B151B1002300
:10AC50001022019301AB02F0F7FD03B05DF804EBA5
:10AC6000FFF782BF014803B05DF804FB009FFFFFC0
:10AC700010F1860F12D010F1850F0ADA10F1950F3E
:10AC80000FD010F1930F0CBF6FF06F004FF0FF303B
:10AC90007047003818BF0120404270476FF07100C4
:10ACA00070470148704700BF00B2FFFF2DE9F04137
:10ACB00000248046B2B00E46154621463D2222A809
:10ACC0001F46219451F02AFA21463C2212A81194E1
:10ACD00051F024FA2146242208A851F01FFA98F8CE
:10ACE000000008A935F0C4FCFFF7C2FF04460028A5
:10ACF00041D14FF4804108A835F0B4FCBDF82030B4
:10AD0000BDF8224003F44F420734B2F5824F4FEAB8
:10AD1000D40434D1DBB2412B31D1224611A93846BB
:10AD2000079437F0A5FA2246284621A937F0A0FA61
:10AD300007AB04934123039321AB0293079B1E4867
:10AD4000019321AB009311AA234608A936F0CDFE4A
:10AD5000FFF78EFF044670B9BDF82030304603F48B
:10AD60004F41B1F5824F079A21A922D1DBB2412B85
:10AD70001FD137F051FA204632B0BDE8F0816300B0
:10AD80002246013311A93846079337F077FA042396
:10AD900022460DF1850128468DF8843037F06EFA91
:10ADA000611C21AB2246194405F1080037F066FA10
:10ADB000BEE737F047FADEE700000209012908B5CF
:10ADC0000BDC074B074A00290CBF1146194602F05D
:10ADD000FBFBBDE8084035F0E4BC6FF0730008BD34
:10ADE00008000002090000022DE9F0410129054692
:10ADF0000E4690461F4692B04AD8046824F040039D
:10AE0000802B02D0B4F5807F45D11C2200210BA8F5
:10AE100051F084F9234A244B0121012E08BF134627
:10AE20000A932B1D0193E408204B44F00054029137
:10AE30000AA80394CDF8108005910693079708910E
:10AE400001A9099334F0E3FF04A90AA834F0DFFF55
:10AE500007A90AA834F0E5FF29680AA8C90834F050
:10AE6000EAFF10210AA834F0E6FFFEF71DFDA8B99D
:10AE70000AA834F0E9FF4FF098435A6CD202FCD58F
:10AE80005C6DFEF719FD04F4702012B0BDE8F0818E
:10AE90006FF02000F9E76FF07100F6E74FF0FF3038
:10AEA000F3E700BF000100040001010410000020CE
:10AEB0002DE9F04101290646884615461F4698B0FF
:10AEC0005ED811075FD1046824F04003802B02D0C4
:10AED000B4F5807F5AD11C22002111A851F01EF92F
:10AEE0002D4A2E4BE408B8F1010F08BF134601228A
:10AEF0001093331D01932A4B44F0005402920394A3
:10AF00000497059206930797089209931E9B1F9931
:10AF10000A9345F000530B9210A80C930D9101A9D0
:10AF20000E920F9334F073FF04A910A834F06FFF52
:10AF30000AA910A834F06BFF0DA910A834F071FF16
:10AF400007A910A834F06DFF316810A8C90834F0C3
:10AF500072FF294610A834F06EFFFEF7A5FCC0B9B9
:10AF600010A834F071FF4FF098435A6CD202FCD510
:10AF70005C6DFEF7A1FC04F4702018B0BDE8F08110
:10AF80006FF02000F9E76FF02100F6E76FF01F0087
:10AF9000F3E74FF0FF30F0E703020004030201047F
:10AFA00010000020F0B50468059E002C36D01D6806
:10AFB000002D33D00D68412D2ED935683F2D2DD968
:10AFC0004125257005686C1C04600C68013C0C6010
:10AFD00004246C7004680D6801340460013D0D6048
:10AFE0001D6805F1400755F804CBBD4244F804CB79
:10AFF000F9D1046840340460086840380860196872
:10B00000403119603368403B33600AB90020F0BD1D
:10B01000136842331360F9E70148F8E70148F6E79F
:10B0200000B1FFFF80B0FFFF2DE9F743076804463A
:10B030000D4690461E46DDF828901FB91D4803B006
:10B04000BDE8F0831F68002FF8D0CDF80090FFF71F
:10B05000A9FF0028F3D12B68202BEFD9D9F80030B5
:10B060001F2BEBD9202223681A7021682B6801312D
:10B070002160013B2B6033689A1853F8047B93429C
:10B0800041F8047BF9D12368203323602B68203BEF
:10B090002B60336820333360D9F80030203BC9F887
:10B0A0000030B8F1000FCAD0D8F800302133C8F80A
:10B0B0000030C4E780B0FFFF2DE9F04198460B68EF
:10B0C00006460D4617469BB1016889B112687AB1F0
:10B0D0000A4612F8014B02605A1E94422A6007D8B1
:10B0E0004A78023B023101602B60EAB1042A02D0A7
:10B0F0000E48BDE8F081D8F80030013C9C42F7D8FA
:10B100002246386851F042F8336800202344336007
:10B110002B681B1B2B603B6823443B60D8F8003036
:10B120001B1BC8F80030E4E70148E2E780B0FFFFEE
:10B1300080B3FFFF2DE9F0470C6805460F46164621
:10B14000984624B9DFF884904846BDE8F087046843
:10B15000002CF7D01468002CF4D0FFF7ADFF814627
:10B160000028F1D13B68002BECD02A68013B12F893
:10B17000014B9C422A603B60E4D8D8F800309C42E6
:10B18000E0D8002CDED0C4F1200A014652463068D7
:10B1900050F0C4FF3068D8F800305044203B306095
:10B1A0002344C8F800302246296850F0EFFF336886
:10B1B00023443360D8F800301B1BC8F800302B68DC
:10B1C00023442B603B681B1B3B60BDE780B0FFFF47
:10B1D00010B51446039A202A0DD8092C0DD1032B43
:10B1E0000BD1074B01710360026302990C3050F0E0
:10B1F000CDFF002010BD0348FCE76FF07100F9E7B8
:10B200001F00008080B0FFFF2DE9F04F0E460021A7
:10B21000D5B08246196003921DA81C221F4650F02B
:10B220007DFF4FF030634FF0010B504A1C9307AB8A
:10B2300007CA83E807004E4A9AF804100AF1540836
:10B2400052F8210024AD0A90CDF82CB050F0ABFF9D
:10B250000AF1340140F000500C900D9145494648E8
:10B26000CDF838B007AB0F910AF1940940313CACEE
:10B27000CDF84080CDF844B012901395CDF850B081
:10B280001591CDF85890CDF85CB0189019941CA881
:10B29000CDF868B01B91194634F0B9FD0AA91CA875
:10B2A00034F0B5FD0DA91CA834F0BBFD10A91CA8F5
:10B2B00034F0B7FD13A91CA834F0B3FD16A91CA8DF
:10B2C00034F0AFFD19A91CA834F0ABFDDAF800107A
:10B2D0001CA834F0B0FD9AF80430254A52F8230037
:10B2E00050F061FF01461CA834F0A5FD35F0C1FA0D
:10B2F000002835D11CA834F0A7FD35F0B1FA8246FC
:10B3000035F0BFFABAF1000F2DD1CDE904684FF046
:10B31000400806AE3A46009605AB03A904A8CDF84E
:10B320001880FFF73FFED8B905956025009605AB5C
:10B3300003A904A80695FFF777FE88B93A46009658
:10B3400005AB03A904A8CDE90598FFF72BFE38B992
:10B35000009605AB03A904A8CDE90545FFF764FEF7
:10B3600055B0BDE8F08F6FF06F00F9E738CF0508F2
:10B3700030CF050820000020400000202DE9F04FCC
:10B38000002405464026D5B0CDE9022125A8214656
:10B390005C22249450F0C2FE21465C223DA83C94DD
:10B3A00005F1D40A50F0BAFE06AB05AA02A903A81B
:10B3B000CDF814A00696FFF77FFE0446002840F063
:10B3C000A7804FF0600824AF06AB05AA02A903A826
:10B3D0000597CDF81880FFF7ADFE0446002840F031
:10B3E000978005F58A7906AB05AA02A903A8CDE9DD
:10B3F0000596FFF761FE0446002840F089803CAEC8
:10B4000006AB05AA02A903A8CDE90568FFF792FEDD
:10B41000044600287CD1029B002B7DD101240146EB
:10B420001C221DA850F07AFE3C4BDFF808811C93CB
:10B430003B4B0DF11C0B93E807002B798BE80700C1
:10B4400058F8230001930A900B9450F0ACFE019B36
:10B4500040F00050E31A0C9058F823000D900E9421
:10B4600050F0A1FE2F4A304B40F000500F9059464B
:10B470001CA8CDF840A01194129213971494159320
:10B48000CDF858901794189219961A941B9334F08B
:10B49000BEFC0AA91CA834F0BAFC0DA91CA834F003
:10B4A000B6FC10A91CA834F0B2FC13A91CA834F0F7
:10B4B000AEFC16A91CA834F0AAFC19A91CA834F0EB
:10B4C000A6FC29681CA834F0B6FC2B7958F8230098
:10B4D00050F069FE01461CA834F0ADFC2B79E31A4C
:10B4E00058F8230050F05FFE01461CA834F0A3FC7E
:10B4F00035F0BFF9044658B91CA834F0A5FC35F066
:10B50000AFF9054635F0BDF9084B002D18BF1C46B4
:10B51000204655B0BDE8F08F054CF9E70001000B5F
:10B5200038CF0508400000206000002000B2FFFF77
:10B5300080B0FFFF30CF05082DE9F04F0F46002106
:10B5400006464FF00109D3B01960039223A81C22CC
:10B55000984650F0E3FD604BDFF894B122935F4BC7
:10B560000DF11C0A93E8070006F10C030A93336BF4
:10B57000CDF82C9043F000530C9333798AE8070000
:10B580005BF823002AAD0D90CDF8389050F00BFEFB
:10B5900006F1340340F000500F901093504BCDF85B
:10B5A0004490129306F1540313934E4B06F1D402C8
:10B5B000CDF850901593169206F58A72CDF85C90EE
:10B5C0005146189322A819923AACCDF868901B9373
:10B5D0001C95CDF874901E9320331F94CDF8809065
:10B5E000219334F014FC0AA922A834F010FC0DA910
:10B5F00022A834F00CFC10A922A834F008FC13A9EE
:10B6000022A834F004FC16A922A834F000FC19A9E1
:10B6100022A834F0FCFB1CA922A834F002FC1FA9CC
:10B6200022A834F0FEFB316822A834F004FC316B10
:10B6300022A834F000FC33795BF8230050F0B3FD0E
:10B64000014622A834F0F7FB35F013F9002839D170
:10B6500022A834F0F9FB35F003F9814635F011F9F1
:10B66000B9F1000F35D13379012B15D1039EA72EE7
:10B670002BD9032004F0CCF948B303233B70438853
:10B68000033E1B0A7B7043880396BB70D8F80030DA
:10B6900003370333C8F800304023CDE9047506AD05
:10B6A00006934246009505AB03A904A8FFF77AFC70
:10B6B00040B960230095069303A905AB04A805943F
:10B6C000FFF7B2FC53B0BDE8F08F0748FAE7074830
:10B6D000F8E76FF06F00F5E70000010B38CF0508C1
:10B6E000200000204000002000B1FFFF80B0FFFFDD
:10B6F00030CF05082DE9F0430379BBB00546CDE90D
:10B700000021DBB9022A144604D8554C20463BB030
:10B71000BDE8F0830B78032BF7D1CB1C487801935D
:10B720008B7843EA002004F07FF9002800F0958030
:10B730000378032B40F09180033C0094402369463A
:10B74000049305F5AA7704AB03AA01A80397FFF7B2
:10B75000B3FC04460028D9D160236946049322AE85
:10B7600004AB03AA01A80396FFF7E4FC04460028F3
:10B77000CCD1009B002BC8D1012401461C221BA860
:10B7800050F0CCFC374BDFF8EC901A93364B0DF1B0
:10B79000140893E807002B7988E80700C3F1010338
:10B7A00059F823000890099450F0FDFC05F154036A
:10B7B00040F000500A900B932C4B05F194020C942E
:10B7C0000D930E9205F1D4020F94414610931AA8DE
:10B7D000119212941393149715941693203317967D
:10B7E0001894199334F013FB08A91AA834F00FFB2E
:10B7F0000BA91AA834F00BFB0EA91AA834F007FB0A
:10B8000011A91AA834F003FB14A91AA834F0FFFAFE
:10B8100017A91AA834F0FBFA29681AA834F00BFB10
:10B820002B79E31A59F8230050F0BDFC01461AA801
:10B8300034F001FB35F01DF8044600287FF466AFB4
:10B840001AA834F001FB35F00BF8054635F019F86D
:10B85000074B002D18BF1C4658E76FF0710455E7E1
:10B8600080B0FFFF0001010B38CF05084000002029
:10B8700000B2FFFF30CF0508F0B51F2A04460E4680
:10B880001D469BB061D91C22002113A850F046FC34
:10B890002F4B304A12936B4607CA83E8070004F126
:10B8A0000C0203920122216B049241F00051059198
:10B8B00004F134010691284904F58A700792089131
:10B8C0000990264804F5AA770A920B900C970D92DE
:10B8D0000E900F9612A810921191194634F097FA13
:10B8E00003A912A834F093FA06A912A834F08FFA2B
:10B8F00009A912A834F08BFA0CA912A834F087FA1F
:10B900000FA912A834F08DFA216812A834F093FA26
:10B91000216B12A834F08FFA202112A834F08BFA90
:10B9200034F0A7FF044650B912A834F08DFA34F071
:10B9300097FF064634F0A5FF26B920232B6020464A
:10B940001BB0F0BD2C60064CF9E7064CF7E700BFD2
:10B950000004020B38CF0508200000204000002022
:10B9600000B2FFFF00B1FFFF30B5154B87B0029367
:10B97000144B0390049346F611030D46059300F013
:10B9800023F81428044616D1684634F0D1FF4FF04E
:10B99000A843032202A95A6319601D619A63DA6BF6
:10B9A0009207FCD1142C02D1684634F0CFFF00F08E
:10B9B0003FF8044601E00028E9D0204607B030BD3A
:10B9C0009C7200200400002038B5164B5A6E42F0DD
:10B9D00004025A66D3F8802242F00102C3F88022A2
:10B9E000114B5B68C3F3080343B14FF0A842D36B1C
:10B9F00013F0430FFBD11424204638BD4FF0A84369
:10BA0000DC6B14F04304FBD1084D2B681BB90421F7
:10BA1000284607F015FB2B68013343F000432B60E9
:10BA2000EAE700BF0080005000ED00E09C720020BB
:10BA3000014B00205B68704700ED00E0012300F03F
:10BA40001F02A0F506200949A0F550604009934067
:10BA500051F820201A4341F82020054951F82020B0
:10BA600022EA030241F82020704700BFB472002090
:10BA7000A07200200121A0F506230E4AA3F5506311
:10BA80005B0900F01F00814052F82300014342F897
:10BA900023100949D1E90030034488680344C86889
:10BAA000096903445B1802BFC2E90033C2E90233EB
:10BAB00013617047A0720020B47200202DE9F04F8E
:10BAC000A9B003921D4604460822339ECDE9040125
:10BAD000414021FA02F34B40980702F1080218BFD7
